:100000000C9434000C9451000C9451000C94510049
:100010000C9451000C9451000C9451000C9451001C
:100020000C9451000C9451000C9451000C9451000C
:100030000C9451000C9451000C9451000C945100FC
:100040000C9469000C9451000C9451000C945100D4
:100050000C9451000C9451000C9451000C945100DC
:100060000C9451000C94510011241FBECFEFD8E026
:10007000DEBFCDBF11E0A0E0B1E0E8E9F2E002C0F0
:1000800005900D92AA30B107D9F721E0AAE0B1E0BE
:1000900001C01D92A331B207E1F70E943A010C940E
:1000A0004A010C9400008EEF8AB90895CF93DF9334
:1000B000C0E0D1E089918BB968EE73E080E090E018
:1000C0000E94D60081E0CA30D807A1F7DF91CF9116
:1000D00008951F920F920FB60F9211242F933F9302
:1000E0008F939F93AF93BF9380910B0190910C01DD
:1000F000A0910D01B0910E0130910A0123E0230F70
:100100002D3720F40196A11DB11D05C026E8230F4F
:100110000296A11DB11D20930A0180930B019093BB
:100120000C01A0930D01B0930E0180910F019091ED
:100130001001A0911101B09112010196A11DB11DF4
:1001400080930F0190931001A0931101B0931201BD
:10015000BF91AF919F918F913F912F910F900FBEC3
:100160000F901F9018953FB7F89480910F019091D0
:100170001001A0911101B091120126B5A89B05C0F4
:100180002F3F19F00196A11DB11D3FBF6627782FA3
:10019000892F9A2F620F711D811D911D42E0660FFC
:1001A000771F881F991F4A95D1F70895CF92DF9244
:1001B000EF92FF92CF93DF936B017C010E94B3001B
:1001C000EB01C114D104E104F10489F00E9449015A
:1001D0000E94B3006C1B7D0B683E734090F381E07E
:1001E000C81AD108E108F108C851DC4FEACFDF9105
:1001F000CF91FF90EF90DF90CF900895789484B5E1
:10020000826084BD84B5816084BD85B5826085BD12
:1002100085B5816085BDEEE6F0E0808181608083F8
:10022000E1E8F0E0108280818260808380818160DB
:100230008083E0E8F0E0808181608083E1EBF0E0A2
:10024000808184608083E0EBF0E080818160808346
:10025000EAE7F0E08081846080838081826080832F
:100260008081816080838081806880831092C1005A
:10027000089508950E94FE000E9439010E945300D3
:10028000C0E0D0E00E9456002097E1F30E940000F9
:08029000F9CF0895F894FFCFA7
:0A029800FC60DAF266B6BEE0FEF686
:00000001FF
